:020000040800F2
:1000000000000520A5180008F5180008F5180008DC
:10001000F5180008F5180008F518000800000000A1
:10002000000000000000000000000000F5180008BB
:10003000F518000800000000F5180008291800084D
:10004000F5180008F5180008F5180008F51800085C
:10005000F5180008F5180008F5180008F51800084C
:10006000F5180008F5180008F5180008F51800083C
:10007000F5180008F5180008F5180008F51800082C
:10008000F5180008F5180008F5180008F51800081C
:10009000F5180008F5180008F5180008F51800080C
:1000A000F5180008F5180008F5180008F5180008FC
:1000B000F5180008F5180008F5180008F5180008EC
:1000C000F5180008F5180008F5180008F5180008DC
:1000D000F5180008F5180008F5180008F5180008CC
:1000E000F5180008F5180008F5180008F5180008BC
:1000F000F5180008F5180008F5180008F5180008AC
:10010000F5180008F5180008F5180008F51800089B
:10011000F5180008F5180008F5180008F51800088B
:10012000F5180008F5180008F5180008F51800087B
:10013000F5180008F5180008F5180008F51800086B
:10014000F5180008F5180008F5180008F51800085B
:10015000F5180008F5180008F5180008F51800084B
:10016000F5180008F5180008F5180008F51800083B
:10017000F5180008F5180008F51800080000000040
:10018000F5180008F5180008F5180008F51800081B
:10019000F5180008F5180008F5180008F51800080B
:1001A000F5180008F5180008F5180008F5180008FB
:1001B000F5180008F5180008F5180008F5180008EB
:0801C000F5180008F51800080D
:1001C80010B5054C237833B9044B13B10448AFF389
:1001D80000800123237010BD0C00002000000000E7
:1001E8004019000808B5034B1BB103490348AFF396
:1001F800008008BD00000000100000204019000821
:1002080053B94AB9002908BF00281CBF4FF0FF3175
:100218004FF0FF3000F07AB9ADF1080C6DE904CE6B
:1002280000F006F8DDF804E0DDE9022304B07047C9
:100238002DE9F0478C460D460446089E002B51D107
:100248008A4217466DD9B2FA82FEBEF1000F0BD072
:10025800CEF1200C01FA0EF520FA0CFC02FA0EF78A
:100268004CEA050C00FA0EF44FEA174A250CBCFBC1
:10027800FAF81FFA87F90AFB18CC45EA0C4508FB7F
:1002880009F3AB420AD9ED1908F1FF3280F0238156
:10029800AB4240F22081A8F102083D44ED1AA4B215
:1002A800B5FBFAF00AFB105544EA054400FB09F9CE
:1002B800A14509D9E41900F1FF3380F00A81A1456D
:1002C80040F2078102383C44A4EB090440EA0840A4
:1002D8000021002E61D024FA0EF4002334607360EC
:1002E800BDE8F0878B4207D9002E54D0002186E85C
:1002F80021000846BDE8F087B3FA83F1002940F0F1
:100308008E80AB4202D3824200F2FA80841A65EBF7
:1003180003050120AC46002E3FD086E81010BDE84A
:10032800F08712B90127B7FBF2F7B7FA87FEBEF1DB
:10033800000F34D1EB1B3A0C1FFA87FC0121B3FBE9
:10034800F2F8250C02FB183345EA03450CFB08F3C9
:10035800AB4207D9ED1908F1FF3002D2AB4200F2E7
:10036800D1808046ED1AA3B2B5FBF2F002FB10551E
:1003780043EA05440CFB00FCA44507D9E41900F145
:10038800FF3302D2A44500F2B8801846A4EB0C044F
:1003980040EA08409DE731463046BDE8F087CEF197
:1003A800200405FA0EF307FA0EF720FA04F83A0CBF
:1003B80025FA04F448EA0308B4FBF2F14FEA1845B9
:1003C80002FB11441FFA87FC45EA044501FB0CF3C4
:1003D800AB4200FA0EF409D9ED1901F1FF3080F0B3
:1003E8008A80AB4240F2878002393D44EB1A1FFAFB
:1003F80088F5B3FBF2F002FB103345EA034500FB36
:100408000CF3AB4207D9ED1900F1FF386FD2AB42BC
:100418006DD902383D44EB1A40EA01418FE7C1F13A
:10042800200722FA07F88B4005FA01F448EA03038B
:1004380020FA07FE4FEA134CFD404EEA040EB5FBC6
:10044800FCF94FEA1E440CFB19551FFA83F844EADD
:10045800054509FB08F4AC4202FA01F200FA01FA78
:1004680008D9ED1809F1FF3043D2AC4241D9A9F1BE
:1004780002091D442D1B1FFA8EFEB5FBFCF00CFB78
:1004880010554EEA054400FB08F8A04507D9E418C2
:1004980000F1FF3529D2A04527D902381C4440EA8B
:1004A8000940A4EB0804A0FB02894C45C6464D460A
:1004B80015D312D056B1BAEB0E0364EB050404FA57
:1004C80007F7CB401F43CC40376074600021BDE87C
:1004D800F0871846F8E69046E0E6C245EAD2B8EB5F
:1004E800020E69EB03050138E4E72846D7E74046E2
:1004F80091E78146BEE7014678E702383C4445E784
:10050800084608E7A8F102083D442BE7704700BFFA
:1005180080B500AF032000F02BF9002000F006F8AA
:1005280001F030F90023184680BD000080B582B084
:1005380000AF7860124B1A68124B1B7819464FF4BB
:100548007A73B3FBF1F3B2FBF3F3184600F037F913
:100558000346002B01D001230EE07B680F2B0AD83D
:10056800002279684FF0FF3000F00DF9064A7B68E9
:100578001360002300E0012318460837BD4680BDFC
:1005880008000020040000200000002080B400AF14
:10059800064B1B781A46064B1B681344044A136023
:1005A80000BFBD465DF8047B704700BF0400002013
:1005B8002800002080B400AF034B1B681846BD46D6
:1005C8005DF8047B704700BF2800002080B584B028
:1005D80000AF7860FFF7EEFFB8607B68FB60FB68F0
:1005E800B3F1FF3F05D0094B1B781A46FB6813444B
:1005F800FB6000BFFFF7DEFF0246BB68D21AFB684C
:100608009A42F7D300BF1037BD4680BD04000020D2
:1006180080B485B000AF78607B6803F00703FB60A7
:100628000B4BDB68BB60BA684FF6FF031340BB6037
:10063800FB681A02BB681A43064B1343BB60044AA3
:10064800BB68D36000BF1437BD465DF8047B7047B4
:1006580000ED00E00000FA0580B400AF044BDB6851
:100668001B0A03F007031846BD465DF8047B704774
:1006780000ED00E080B483B000AF03463960FB7141
:1006880097F90730002B0BDA0D49FB7903F00F03BC
:10069800043B3A68D2B21201D2B20B441A7609E08E
:1006A800084997F907303A68D2B21201D2B20B441E
:1006B80083F8002300BF0C37BD465DF8047B704704
:1006C80000ED00E000E100E080B489B000AFF86020
:1006D800B9607A60FB6803F00703FB61FB69C3F14B
:1006E8000703042B28BF0423BB61FB690433062BD3
:1006F80002D9FB69033B00E000237B610122BB694F
:1007080002FA03F35A1EBB681A407B699A4001211A
:100718007B6901FA03F3591E7B680B4013431846A3
:100728002437BD465DF8047B7047000080B582B071
:1007380000AF78607B68013BB3F1807F01D3012370
:100748000FE00A4A7B68013B53600F214FF0FF30EE
:10075800FFF790FF054B00229A60044B07221A60AE
:10076800002318460837BD4680BD00BF10E000E0F2
:1007780080B582B000AF78607868FFF749FF00BFA6
:100788000837BD4680BD80B586B000AF0346B96066
:100798007A60FB7300237B61FFF75EFF78617A68FC
:1007A800B9687869FFF790FF024697F90F3011464C
:1007B8001846FFF75FFF00BF1837BD4680BD80B5FC
:1007C80082B000AF78607868FFF7B0FF034618463C
:1007D8000837BD4680BD000080B483B000AF7860A4
:1007E8007B68042B06D1094A084B1B6843F00403B5
:1007F800136005E0054A054B1B6823F004031360EA
:1008080000BF0C37BD465DF8047B704710E000E080
:1008180080B500AF00F002F800BF80BD80B400AF23
:1008280000BFBD465DF8047B7047000080B489B006
:1008380000AF786039600023FB6100237B610023EF
:100848003B610023BB610023FB6175E10122FB6969
:1008580002FA03F37B613B681A687B6913403B61CA
:100868003A697B699A4240F064813B685B68022B75
:1008780003D03B685B68122B23D1FB69DA087B68DD
:10088800083253F82230BB61FB6903F007039B0071
:100898000F2202FA03F3DB43BA691340BB613B68DA
:1008A8001A69FB6903F007039B0002FA03F3BA69AC
:1008B8001343BB61FB69DA087B680832B96943F8FE
:1008C80022107B681B68BB61FB695B00032202FA8C
:1008D80003F3DB43BA691340BB613B685B6803F011
:1008E8000302FB695B0002FA03F3BA691343BB61B5
:1008F8007B68BA691A603B685B68012B0BD03B6860
:100908005B68022B07D03B685B68112B03D03B6800
:100918005B68122B30D17B689B68BB61FB695B000D
:10092800032202FA03F3DB43BA691340BB613B6855
:10093800DA68FB695B0002FA03F3BA691343BB6127
:100948007B68BA699A607B685B68BB610122FB6956
:1009580002FA03F3DB43BA691340BB613B685B6887
:100968001B0903F00102FB6902FA03F3BA69134396
:10097800BB617B68BA695A607B68DB68BB61FB69ED
:100988005B00032202FA03F3DB43BA691340BB613D
:100998003B689A68FB695B0002FA03F3BA69134380
:1009A800BB617B68BA69DA603B685B6803F08053B7
:1009B800002B00F0BE80654A644B5B6C43F48043B7
:1009C8005364624B5B6C03F48043FB60FB68604AD2
:1009D800FB699B08023352F82330BB61FB6903F0C3
:1009E80003039B000F2202FA03F3DB43BA691340A7
:1009F800BB617B68574A934237D07B68564A93421B
:100A080031D07B68554A93422BD07B68544A934235
:100A180025D07B68534A93421FD07B68524A934241
:100A280019D07B68514A934213D07B68504A93424D
:100A38000DD07B684F4A934207D07B684E4A934259
:100A480001D1092312E00A2310E008230EE007234E
:100A58000CE006230AE0052308E0042306E003234C
:100A680004E0022302E0012300E00023FA6902F017
:100A7800030292009340BA691343BB613449FB698E
:100A88009B080233BA6941F823203C4B1B68BB61C1
:100A98003B69DB43BA691340BB613B685B6803F49D
:100AA8008033002B03D0BA693B691343BB61334AD7
:100AB800BB691360314B5B68BB613B69DB43BA6957
:100AC8001340BB613B685B6803F40033002B03D021
:100AD800BA693B691343BB61284ABB695360274B1A
:100AE8009B68BB613B69DB43BA691340BB613B68E8
:100AF8005B6803F48013002B03D0BA693B69134386
:100B0800BB611E4ABB6993601C4BDB68BB613B69D8
:100B1800DB43BA691340BB613B685B6803F40013AD
:100B2800002B03D0BA693B691343BB61134ABB6905
:100B3800D360FB690133FB61FB690F2B7FF686AE3F
:100B480000BF2437BD465DF8047B7047003802407B
:100B58000038014000000240000402400008024042
:100B6800000C02400010024000140240001802402D
:100B7800001C02400020024000240240003C0140CA
:100B880080B483B000AF78600B467B8013467B70DF
:100B98007B78002B03D07A887B689A6103E07B8896
:100BA8001A047B689A6100BF0C37BD465DF8047B68
:100BB800704780B483B000AF78600B467B807B6859
:100BC8005A697B885A407B685A6100BF0C37BD461A
:100BD8005DF8047B7047000080B586B000AF786090
:100BE8000023FB757B68002B01D101235CE27B6845
:100BF8001B6803F00103002B00F08780964B9B686D
:100C080003F00C03042B0CD0934B9B6803F00C03EC
:100C1800082B12D1904B5B6803F48003B3F5800F67
:100C28000BD18D4B1B6803F40033002B6CD07B6811
:100C38005B68002B68D1012336E27B685B68B3F5FB
:100C4800803F06D1844A844B1B6843F48033136089
:100C58002EE07B685B68002B0CD17F4A7E4B1B68BB
:100C680023F4803313607C4A7B4B1B6823F4802376
:100C780013601DE07B685B68B3F5A02F0CD1764A42
:100C8800754B1B6843F480231360734A724B1B68CF
:100C980043F4803313600BE06F4A6F4B1B6823F4F7
:100CA800803313606C4A6C4B1B6823F480231360F9
:100CB8007B685B68002B13D0FFF77CFC386108E089
:100CC800FFF778FC02463B69D31A642B01D903234A
:100CD800EAE1614B1B6803F40033002BF0D014E009
:100CE800FFF768FC386108E0FFF764FC02463B69DF
:100CF800D31A642B01D90323D6E1574B1B6803F49D
:100D08000033002BF0D100E000BF7B681B6803F0C4
:100D18000203002B69D0504B9B6803F00C03002B97
:100D28000BD04D4B9B6803F00C03082B1CD14A4B8E
:100D38005B6803F48003002B16D1474B1B6803F054
:100D48000203002B05D07B68DB68012B01D001234F
:100D5800AAE14149404B1B6823F0F8027B681B69F4
:100D6800DB0013430B6040E07B68DB68002B23D07B
:100D7800394A394B1B6843F001031360FFF71AFC2B
:100D8800386108E0FFF716FC02463B69D31A022BCC
:100D980001D9032388E1304B1B6803F00203002BC1
:100DA800F0D02D492C4B1B6823F0F8027B681B6997
:100DB800DB0013430B6018E0274A274B1B6823F01E
:100DC80001031360FFF7F6FB386108E0FFF7F2FB59
:100DD80002463B69D31A022B01D9032364E11E4B57
:100DE8001B6803F00203002BF0D17B681B6803F03B
:100DF8000803002B38D07B685B69002B19D0164A92
:100E0800154B5B6F43F001035367FFF7D3FB386162
:100E180008E0FFF7CFFB02463B69D31A022B01D942
:100E2800032341E10C4B5B6F03F00203002BF0D06E
:100E38001AE0094A084B5B6F23F001035367FFF779
:100E4800B9FB38610AE0FFF7B5FB02463B69D31AE4
:100E5800022B03D9032327E100380240944B5B6F30
:100E680003F00203002BEED17B681B6803F0040338
:100E7800002B00F0A4808E4B1B6C03F08053002BDA
:100E88000DD18B4A8A4B1B6C43F080531364884BFB
:100E98001B6C03F08053FB60FB680123FB75854BDB
:100EA8001B6803F48073002B18D1824A814B1B689E
:100EB80043F480731360FFF77DFB386108E0FFF7A8
:100EC80079FB02463B69D31A642B01D90323EBE073
:100ED800784B1B6803F48073002BF0D07B689B6809
:100EE800012B06D1724A724B1B6F43F00103136743
:100EF8002DE07B689B68002B0CD16D4A6C4B1B6FF7
:100F080023F0010313676A4A694B1B6F23F004033C
:100F180013671CE07B689B68052B0CD1644A644B03
:100F28001B6F43F004031367614A614B1B6F43F067
:100F3800010313670BE05E4A5D4B1B6F23F001034F
:100F480013675B4A5A4B1B6F23F0040313677B68D4
:100F58009B68002B15D0FFF72DFB38610AE0FFF7DF
:100F680029FB02463B69D31A41F28832934201D9E0
:100F7800032399E04E4B1B6F03F00203002BEED0C6
:100F880014E0FFF717FB38610AE0FFF713FB02468E
:100F98003B69D31A41F28832934201D9032383E093
:100FA800434B1B6F03F00203002BEED1FB7D012B9B
:100FB80005D13F4A3E4B1B6C23F0805313647B687A
:100FC8009B69002B6FD03A4B9B6803F00C03082BEE
:100FD80067D07B689B69022B49D1354A344B1B6823
:100FE80023F080731360FFF7E5FA386108E0FFF734
:100FF800E1FA02463B69D31A022B01D9032353E0D5
:101008002B4B1B6803F00073002BF0D128497B6839
:10101800DA697B681B6A1A437B685B6A9B011A431F
:101028007B689B6A5B08013B1B041A437B68DB6A8D
:101038001B06134343F000534B601D4A1C4B1B68AF
:1010480043F080731360FFF7B5FA386108E0FFF7E3
:10105800B1FA02463B69D31A022B01D9032323E0D4
:10106800134B1B6803F00073002BF0D01BE0104AF1
:101078000F4B1B6823F080731360FFF79BFA3861EE
:1010880008E0FFF797FA02463B69D31A022B01D909
:10109800032309E0064B1B6803F00073002BF0D113
:1010A80001E0012300E0002318461837BD4680BD43
:1010B800003802400070004080B584B000AF78600E
:1010C80039600023FB607B68002B01D10123CEE04F
:1010D800694B1B6803F00F023B689A4210D26649BD
:1010E800654B1B6823F00F023B6813430B60624B90
:1010F8001B6803F00F023B689A4201D00123B6E057
:101108007B681B6803F00203002B20D07B681B68F8
:1011180003F00403002B05D0584A584B9B6843F44E
:10112800E05393607B681B6803F00803002B05D02D
:10113800524A524B9B6843F4604393604F494F4B6C
:101148009B6823F0F0027B689B6813438B607B6885
:101158001B6803F00103002B40D07B685B68012B00
:1011680007D1464B1B6803F40033002B15D101232C
:101178007DE07B685B68022B07D1404B1B6803F05E
:101188000073002B09D1012371E03C4B1B6803F06D
:101198000203002B01D1012369E03849374B9B68D2
:1011A80023F003027B685B6813438B60FFF702FA46
:1011B800F8600AE0FFF7FEF90246FB68D31A41F22D
:1011C8008832934201D9032351E02C4B9B6803F0EA
:1011D8000C027B685B689B009A42EBD1264B1B682C
:1011E80003F00F023B689A4210D92349224B1B682F
:1011F80023F00F023B6813430B601F4B1B6803F07F
:101208000F023B689A4201D0012330E07B681B68DB
:1012180003F00403002B08D01849184B9B6823F4EB
:10122800E0527B68DB6813438B607B681B6803F0C4
:101238000803002B09D01149104B9B6823F4604226
:101248007B681B69DB0013438B6000F01DF80146C7
:101258000A4B9B681B0903F00F03094AD35C21FA68
:1012680003F3084A13600020FFF760F900231846CB
:101278001037BD4680BD00BF003C02400038024028
:1012880068190008080000202DE9F04F8FB000AF62
:101298000023FB6200237B630023BB6200233B63C4
:1012A800624B9B6803F00C03042B07D0082B08D073
:1012B800002B40F0B2805E4B3B63B1E05D4B3B637B
:1012C800AEE05A4B5B6803F03F03FB62574B5B6829
:1012D80003F48003002B4ED0544B5B689B094FF0FE
:1012E800000440F2FF114FF0000201EA030102EA94
:1012F80004020B46144660017862786A40EAD360BB
:1013080078625B013B62D7E908345B1A64EB02043C
:101318004FEA841949EA93694FEA8318B8EB03083E
:1013280069EB04094FEAC903FB61FB6943EA587397
:10133800FB614FEAC803BB61D7E9068918EB0108CE
:1013480049EB02094FEA49237B617B6943EAD85399
:101358007B614FEA48233B61D7E904894046494607
:10136800FB6A4FF000041A462346FEF749FF03467E
:101378000C467B6343E02D4B5B689B094FF00004F0
:1013880040F2FF114FF0000201EA030102EA0402F1
:101398000B4614466001F860F86840EAD360F860CC
:1013A8005B01BB60D7E902345B1A64EB0204A60157
:1013B80046EA93669D01ED1A66EB0406F3007B602E
:1013C8007B6843EA55737B60EB003B6097E86000FD
:1013D8006D1846EB02064FEA862B4BEA955B4FEAFF
:1013E800852A55465E4628463146FB6A4FF000047A
:1013F8001A462346FEF704FF03460C467B630B4B55
:101408005B681B0C03F0030301335B00BB627A6B60
:10141800BB6AB2FBF3F33B6302E0054B3B6300BFDF
:101428003B6B18463C37BD46BDE8F08F003802409C
:101438000024F40000127A0080B400AF034B1B684C
:101448001846BD465DF8047B704700BF08000020C1
:1014580080B500AFFFF75CF800F016F800F07CF8F4
:1014680001210848FFF7A5FB80210648FFF7A1FBEB
:101478004FF480410348FFF79CFB4FF47A70FFF765
:10148800A5F8EDE70004024080B594B000AF2E4AFD
:101498002D4B1B6C43F0805313642B4B1B6C03F0D8
:1014A8008053BB60BB68294A284B1B6823F4404320
:1014B80043F480431360254B1B6803F440437B606F
:1014C8007B6802233B620123FB6210233B630023FA
:1014D800BB6307F120031846FFF77EFB0346002B8A
:1014E80003D097211A4800F047F90F23FB60002327
:1014F8003B6100237B614FF48053BB610023FB6198
:1015080007F10C0300211846FFF7D6FD0346002B10
:1015180003D0A5210E4800F02FF9FFF78DFF0246F2
:101528000C4BA3FB02239B091846FFF748F904203C
:10153800FFF752F9002200214FF0FF30FFF723F99F
:1015480000BF5037BD4680BD0038024000700040E3
:1015580058190008D34D621080B58CB000AF7F4A8F
:101568007E4B1B6B43F0040313637C4B1B6B03F034
:101578000403BB61BB69794A784B1B6B43F080035A
:101588001363764B1B6B03F080037B617B69734AA3
:10159800724B1B6B43F001031363704B1B6B03F01F
:1015A80001033B613B696D4A6C4B1B6B43F00203C3
:1015B80013636A4B1B6B03F00203FB60FB68674A0B
:1015C800664B1B6B43F008031363644B1B6B03F000
:1015D8000803BB60BB68614A604B1B6B43F0400368
:1015E80013635E4B1B6B03F040037B607B68002238
:1015F80044F281015A48FFF7C3FA002240215948B2
:10160800FFF7BEFA4FF40053FB61574B3B620023D0
:101618007B6207F11C0319465448FFF707F9322388
:10162800FB6102233B6200237B620323BB620B2323
:10163800FB6207F11C0319464C48FFF7F7F88623AD
:10164800FB6102233B6200237B620323BB620B2303
:10165800FB6207F11C0319464548FFF7E7F844F217
:101668008103FB6101233B6200237B620023BB6291
:1016780007F11C0319463A48FFF7D8F84FF400530E
:10168800FB6102233B6200237B620323BB620B23C3
:10169800FB6207F11C0319463148FFF7C7F84FF4FE
:1016A8004073FB6102233B6200237B620323BB621E
:1016B8000723FB6207F11C0319462E48FFF7B6F80B
:1016C8004023FB6101233B6200237B620023BB6252
:1016D80007F11C0319462348FFF7A8F88023FB618C
:1016E80000233B6200237B6207F11C0319461D4857
:1016F800FFF79CF84FF4E853FB6102233B62002399
:101708007B620323BB620A23FB6207F11C031946B1
:101718001748FFF78BF84FF40073FB6100233B6217
:1017280000237B6207F11C0319461148FFF77EF876
:101738004FF42053FB6102233B6200237B620323A7
:10174800BB620B23FB6207F11C0319460548FFF730
:101758006DF800BF3037BD4680BD00BF003802407D
:101768000004024000180240000011100008024066
:1017780000000240000C024080B483B000AF7860E3
:101788003960FEE780B582B000AF244A234B1B6C5A
:1017980043F080531364214B1B6C03F080537B6030
:1017A8007B681E4A1D4B5B6C43F4804353641B4BA0
:1017B8005B6C03F480433B603B680320FEF7D8FF73
:1017C800002200216FF00B00FEF7DDFF0022002150
:1017D8006FF00A00FEF7D7FF002200216FF0090022
:1017E800FEF7D1FF002200216FF00400FEF7CBFFC7
:1017F800002200216FF00300FEF7C5FF0022002140
:101808006FF00100FEF7BFFF002200214FF0FF300C
:10181800FEF7B9FF00BF0837BD4680BD003802405B
:1018280080B500AFFEF7B2FEFEF7F2FF00BF80BD45
:1018380080B400AF154A154BD3F8883043F47003D1
:10184800C2F88830124A124B1B6843F00103136038
:101858000F4B00229A600E490D4B1A680D4B13402E
:101868000B600B4B0C4A5A60094A094B1B6823F45E
:1018780080231360064B0022DA60044B4FF00062AD
:101888009A6000BFBD465DF8047B704700ED00E03C
:1018980000380240FFFFF6FE10300024DFF834D095
:1018A800002103E00C4B5B58435004310B480C4BB0
:1018B80042189A42F6D30B4A02E0002342F8043B4E
:1018C800094B9A42F9D3FFF7B3FF00F011F8FFF77D
:1018D800BFFD70470000052088190008000000209F
:1018E8000C0000200C0000202C000020FEE7000067
:1018F80070B50D4E0D4CA41BA4100025A54209D1AE
:101908000B4E0C4C00F018F8A41BA4100025A5429F
:1019180005D170BD56F8253098470135EEE756F8E1
:10192800253098470135F2E780190008801900082A
:101938008019000884190008F8B500BFF8BC08BC75
:101948009E467047F8B500BFF8BC08BC9E46704775
:101958002E2E5C5372635C6D61696E2E630000000D
:101968000000000000000000010203040607080947
:08197800C0E8FF7F0100000040
:04198000ED0100086D
:04198400C90100088D
:0C19880010000000010000000024F4002A
:04000005080018A532
:00000001FF
